{"project/contracts/AcademicRecords.sol":{"AcademicRecords":{"abi":[{"inputs":[],"stateMutability":"nonpayable","type":"constructor"},{"anonymous":false,"inputs":[{"indexed":false,"internalType":"string","name":"studentId","type":"string"},{"indexed":false,"internalType":"string","name":"documentHash","type":"string"}],"name":"RecordIssued","type":"event"},{"anonymous":false,"inputs":[{"indexed":false,"internalType":"string","name":"studentId","type":"string"}],"name":"RecordRevoked","type":"event"},{"inputs":[],"name":"admin","outputs":[{"internalType":"address","name":"","type":"address"}],"stateMutability":"view","type":"function"},{"inputs":[{"internalType":"string","name":"_studentId","type":"string"},{"internalType":"string","name":"_documentHash","type":"string"},{"internalType":"string","name":"_issuer","type":"string"}],"name":"issueRecord","outputs":[],"stateMutability":"nonpayable","type":"function"},{"inputs":[{"internalType":"string","name":"_studentId","type":"string"}],"name":"revokeRecord","outputs":[],"stateMutability":"nonpayable","type":"function"},{"inputs":[{"internalType":"string","name":"_studentId","type":"string"}],"name":"verifyRecord","outputs":[{"components":[{"internalType":"string","name":"studentId","type":"string"},{"internalType":"string","name":"documentHash","type":"string"},{"internalType":"string","name":"issuer","type":"string"},{"internalType":"uint256","name":"timestamp","type":"uint256"},{"internalType":"bool","name":"isValid","type":"bool"}],"internalType":"struct AcademicRecords.Record","name":"","type":"tuple"}],"stateMutability":"view","type":"function"}],"evm":{"bytecode":{"linkReferences":{},"object":"608060405234801561000f575f80fd5b50335f806101000a81548173ffffffffffffffffffffffffffffffffffffffff021916908373ffffffffffffffffffffffffffffffffffffffff1602179055506112628061005c5f395ff3fe608060405234801561000f575f80fd5b506004361061004a575f3560e01c80636ae6a1be1461004e578063c40e58241461006a578063c84683161461009a578063f851a440146100b6575b5f80fd5b6100686004803603810190610063919061090e565b6100d4565b005b610084600480360381019061007f91906109b2565b61037f565b6040516100919190610b26565b60405180910390f35b6100b460048036038101906100af91906109b2565b6105d5565b005b6100be61076f565b6040516100cb9190610b85565b60405180910390f35b5f8054906101000a900473ffffffffffffffffffffffffffffffffffffffff1673ffffffffffffffffffffffffffffffffffffffff163373ffffffffffffffffffffffffffffffffffffffff1614610161576040517f08c379a000000000000000000000000000000000000000000000000000000000815260040161015890610bf8565b60405180910390fd5b5f8351116101a4576040517f08c379a000000000000000000000000000000000000000000000000000000000815260040161019b90610c60565b60405180910390fd5b5f8251116101e7576040517f08c379a00000000000000000000000000000000000000000000000000000000081526004016101de90610cc8565b60405180910390fd5b5f81511161022a576040517f08c379a000000000000000000000000000000000000000000000000000000000815260040161022190610d30565b60405180910390fd5b5f60018460405161023b9190610d88565b9081526020016040518091039020600301541461028d576040517f08c379a000000000000000000000000000000000000000000000000000000000815260040161028490610de8565b60405180910390fd5b6040518060a00160405280848152602001838152602001828152602001428152602001600115158152506001846040516102c79190610d88565b90815260200160405180910390205f820151815f0190816102e89190611000565b5060208201518160010190816102fe9190611000565b5060408201518160020190816103149190611000565b50606082015181600301556080820151816004015f6101000a81548160ff0219169083151502179055509050507fc9f82037000f32d2b46fb276698ef599d04f4997a2e50ea7ff92edf215c53bf48383604051610372929190611107565b60405180910390a1505050565b610387610792565b5f6001836040516103989190610d88565b90815260200160405180910390206040518060a00160405290815f820180546103c090610e33565b80601f01602080910402602001604051908101604052809291908181526020018280546103ec90610e33565b80156104375780601f1061040e57610100808354040283529160200191610437565b820191905f5260205f20905b81548152906001019060200180831161041a57829003601f168201915b5050505050815260200160018201805461045090610e33565b80601f016020809104026020016040519081016040528092919081815260200182805461047c90610e33565b80156104c75780601f1061049e576101008083540402835291602001916104c7565b820191905f5260205f20905b8154815290600101906020018083116104aa57829003601f168201915b505050505081526020016002820180546104e090610e33565b80601f016020809104026020016040519081016040528092919081815260200182805461050c90610e33565b80156105575780601f1061052e57610100808354040283529160200191610557565b820191905f5260205f20905b81548152906001019060200180831161053a57829003601f168201915b5050505050815260200160038201548152602001600482015f9054906101000a900460ff16151515158152505090505f8160600151036105cc576040517f08c379a00000000000000000000000000000000000000000000000000000000081526004016105c390611186565b60405180910390fd5b80915050919050565b5f8054906101000a900473ffffffffffffffffffffffffffffffffffffffff1673ffffffffffffffffffffffffffffffffffffffff163373ffffffffffffffffffffffffffffffffffffffff1614610662576040517f08c379a000000000000000000000000000000000000000000000000000000000815260040161065990610bf8565b60405180910390fd5b5f6001826040516106739190610d88565b908152602001604051809103902090505f8160030154036106c9576040517f08c379a00000000000000000000000000000000000000000000000000000000081526004016106c090611186565b60405180910390fd5b806004015f9054906101000a900460ff16610719576040517f08c379a0000000000000000000000000000000000000000000000000000000008152600401610710906111ee565b60405180910390fd5b5f816004015f6101000a81548160ff0219169083151502179055507fd8e1945ee48ea02e1b48e2f5c405d9b00d13ec0e54d19da9874d0937b448952082604051610763919061120c565b60405180910390a15050565b5f8054906101000a900473ffffffffffffffffffffffffffffffffffffffff1681565b6040518060a001604052806060815260200160608152602001606081526020015f81526020015f151581525090565b5f604051905090565b5f80fd5b5f80fd5b5f80fd5b5f80fd5b5f601f19601f8301169050919050565b7f4e487b71000000000000000000000000000000000000000000000000000000005f52604160045260245ffd5b610820826107da565b810181811067ffffffffffffffff8211171561083f5761083e6107ea565b5b80604052505050565b5f6108516107c1565b905061085d8282610817565b919050565b5f67ffffffffffffffff82111561087c5761087b6107ea565b5b610885826107da565b9050602081019050919050565b828183375f83830152505050565b5f6108b26108ad84610862565b610848565b9050828152602081018484840111156108ce576108cd6107d6565b5b6108d9848285610892565b509392505050565b5f82601f8301126108f5576108f46107d2565b5b81356109058482602086016108a0565b91505092915050565b5f805f60608486031215610925576109246107ca565b5b5f84013567ffffffffffffffff811115610942576109416107ce565b5b61094e868287016108e1565b935050602084013567ffffffffffffffff81111561096f5761096e6107ce565b5b61097b868287016108e1565b925050604084013567ffffffffffffffff81111561099c5761099b6107ce565b5b6109a8868287016108e1565b9150509250925092565b5f602082840312156109c7576109c66107ca565b5b5f82013567ffffffffffffffff8111156109e4576109e36107ce565b5b6109f0848285016108e1565b91505092915050565b5f81519050919050565b5f82825260208201905092915050565b5f5b83811015610a30578082015181840152602081019050610a15565b5f8484015250505050565b5f610a45826109f9565b610a4f8185610a03565b9350610a5f818560208601610a13565b610a68816107da565b840191505092915050565b5f819050919050565b610a8581610a73565b82525050565b5f8115159050919050565b610a9f81610a8b565b82525050565b5f60a083015f8301518482035f860152610abf8282610a3b565b91505060208301518482036020860152610ad98282610a3b565b91505060408301518482036040860152610af38282610a3b565b9150506060830151610b086060860182610a7c565b506080830151610b1b6080860182610a96565b508091505092915050565b5f6020820190508181035f830152610b3e8184610aa5565b905092915050565b5f73ffffffffffffffffffffffffffffffffffffffff82169050919050565b5f610b6f82610b46565b9050919050565b610b7f81610b65565b82525050565b5f602082019050610b985f830184610b76565b92915050565b5f82825260208201905092915050565b7f4e6f7420617574686f72697a65640000000000000000000000000000000000005f82015250565b5f610be2600e83610b9e565b9150610bed82610bae565b602082019050919050565b5f6020820190508181035f830152610c0f81610bd6565b9050919050565b7f73747564656e74496420726571756972656400000000000000000000000000005f82015250565b5f610c4a601283610b9e565b9150610c5582610c16565b602082019050919050565b5f6020820190508181035f830152610c7781610c3e565b9050919050565b7f646f63756d656e744861736820726571756972656400000000000000000000005f82015250565b5f610cb2601583610b9e565b9150610cbd82610c7e565b602082019050919050565b5f6020820190508181035f830152610cdf81610ca6565b9050919050565b7f69737375657220726571756972656400000000000000000000000000000000005f82015250565b5f610d1a600f83610b9e565b9150610d2582610ce6565b602082019050919050565b5f6020820190508181035f830152610d4781610d0e565b9050919050565b5f81905092915050565b5f610d62826109f9565b610d6c8185610d4e565b9350610d7c818560208601610a13565b80840191505092915050565b5f610d938284610d58565b915081905092915050565b7f5265636f726420616c72656164792065786973747300000000000000000000005f82015250565b5f610dd2601583610b9e565b9150610ddd82610d9e565b602082019050919050565b5f6020820190508181035f830152610dff81610dc6565b9050919050565b7f4e487b71000000000000000000000000000000000000000000000000000000005f52602260045260245ffd5b5f6002820490506001821680610e4a57607f821691505b602082108103610e5d57610e5c610e06565b5b50919050565b5f819050815f5260205f209050919050565b5f6020601f8301049050919050565b5f82821b905092915050565b5f60088302610ebf7fffffffffffffffffffffffffffffffffffffffffffffffffffffffffffffffff82610e84565b610ec98683610e84565b95508019841693508086168417925050509392505050565b5f819050919050565b5f610f04610eff610efa84610a73565b610ee1565b610a73565b9050919050565b5f819050919050565b610f1d83610eea565b610f31610f2982610f0b565b848454610e90565b825550505050565b5f90565b610f45610f39565b610f50818484610f14565b505050565b5b81811015610f7357610f685f82610f3d565b600181019050610f56565b5050565b601f821115610fb857610f8981610e63565b610f9284610e75565b81016020851015610fa1578190505b610fb5610fad85610e75565b830182610f55565b50505b505050565b5f82821c905092915050565b5f610fd85f1984600802610fbd565b1980831691505092915050565b5f610ff08383610fc9565b9150826002028217905092915050565b611009826109f9565b67ffffffffffffffff811115611022576110216107ea565b5b61102c8254610e33565b611037828285610f77565b5f60209050601f831160018114611068575f8415611056578287015190505b6110608582610fe5565b8655506110c7565b601f19841661107686610e63565b5f5b8281101561109d57848901518255600182019150602085019450602081019050611078565b868310156110ba57848901516110b6601f891682610fc9565b8355505b6001600288020188555050505b505050505050565b5f6110d9826109f9565b6110e38185610b9e565b93506110f3818560208601610a13565b6110fc816107da565b840191505092915050565b5f6040820190508181035f83015261111f81856110cf565b9050818103602083015261113381846110cf565b90509392505050565b7f5265636f7264206e6f7420666f756e64000000000000000000000000000000005f82015250565b5f611170601083610b9e565b915061117b8261113c565b602082019050919050565b5f6020820190508181035f83015261119d81611164565b9050919050565b7f5265636f726420616c7265616479207265766f6b6564000000000000000000005f82015250565b5f6111d8601683610b9e565b91506111e3826111a4565b602082019050919050565b5f6020820190508181035f830152611205816111cc565b9050919050565b5f6020820190508181035f83015261122481846110cf565b90509291505056fea26469706673582212205efdf5a7850af7beb25db4958269296d4cc5675e403fe4303616c4cc9a4bc4cb64736f6c63430008140033","opcodes":"PUSH1 0x80 PUSH1 0x40 MSTORE CALLVALUE DUP1 ISZERO PUSH2 0xF JUMPI PUSH0 DUP1 REVERT JUMPDEST POP CALLER PUSH0 DUP1 PUSH2 0x100 EXP DUP2 SLOAD DUP2 PUSH20 0xFFFFFFFFFFFFFFFFFFFFFFFFFFFFFFFFFFFFFFFF MUL NOT AND SWAP1 DUP4 PUSH20 0xFFFFFFFFFFFFFFFFFFFFFFFFFFFFFFFFFFFFFFFF AND MUL OR SWAP1 SSTORE POP PUSH2 0x1262 DUP1 PUSH2 0x5C PUSH0 CODECOPY PUSH0 RETURN INVALID PUSH1 0x80 PUSH1 0x40 MSTORE CALLVALUE DUP1 ISZERO PUSH2 0xF JUMPI PUSH0 DUP1 REVERT JUMPDEST POP PUSH1 0x4 CALLDATASIZE LT PUSH2 0x4A JUMPI PUSH0 CALLDATALOAD PUSH1 0xE0 SHR DUP1 PUSH4 0x6AE6A1BE EQ PUSH2 0x4E JUMPI DUP1 PUSH4 0xC40E5824 EQ PUSH2 0x6A JUMPI DUP1 PUSH4 0xC8468316 EQ PUSH2 0x9A JUMPI DUP1 PUSH4 0xF851A440 EQ PUSH2 0xB6 JUMPI JUMPDEST PUSH0 DUP1 REVERT JUMPDEST PUSH2 0x68 PUSH1 0x4 DUP1 CALLDATASIZE SUB DUP2 ADD SWAP1 PUSH2 0x63 SWAP2 SWAP1 PUSH2 0x90E JUMP JUMPDEST PUSH2 0xD4 JUMP JUMPDEST STOP JUMPDEST PUSH2 0x84 PUSH1 0x4 DUP1 CALLDATASIZE SUB DUP2 ADD SWAP1 PUSH2 0x7F SWAP2 SWAP1 PUSH2 0x9B2 JUMP JUMPDEST PUSH2 0x37F JUMP JUMPDEST PUSH1 0x40 MLOAD PUSH2 0x91 SWAP2 SWAP1 PUSH2 0xB26 JUMP JUMPDEST PUSH1 0x40 MLOAD DUP1 SWAP2 SUB SWAP1 RETURN JUMPDEST PUSH2 0xB4 PUSH1 0x4 DUP1 CALLDATASIZE SUB DUP2 ADD SWAP1 PUSH2 0xAF SWAP2 SWAP1 PUSH2 0x9B2 JUMP JUMPDEST PUSH2 0x5D5 JUMP JUMPDEST STOP JUMPDEST PUSH2 0xBE PUSH2 0x76F JUMP JUMPDEST PUSH1 0x40 MLOAD PUSH2 0xCB SWAP2 SWAP1 PUSH2 0xB85 JUMP JUMPDEST PUSH1 0x40 MLOAD DUP1 SWAP2 SUB SWAP1 RETURN JUMPDEST PUSH0 DUP1 SLOAD SWAP1 PUSH2 0x100 EXP SWAP1 DIV PUSH20 0xFFFFFFFFFFFFFFFFFFFFFFFFFFFFFFFFFFFFFFFF AND PUSH20 0xFFFFFFFFFFFFFFFFFFFFFFFFFFFFFFFFFFFFFFFF AND CALLER PUSH20 0xFFFFFFFFFFFFFFFFFFFFFFFFFFFFFFFFFFFFFFFF AND EQ PUSH2 0x161 JUMPI PUSH1 0x40 MLOAD PUSH32 0x8C379A000000000000000000000000000000000000000000000000000000000 DUP2 MSTORE PUSH1 0x4 ADD PUSH2 0x158 SWAP1 PUSH2 0xBF8 JUMP JUMPDEST PUSH1 0x40 MLOAD DUP1 SWAP2 SUB SWAP1 REVERT JUMPDEST PUSH0 DUP4 MLOAD GT PUSH2 0x1A4 JUMPI PUSH1 0x40 MLOAD PUSH32 0x8C379A000000000000000000000000000000000000000000000000000000000 DUP2 MSTORE PUSH1 0x4 ADD PUSH2 0x19B SWAP1 PUSH2 0xC60 JUMP JUMPDEST PUSH1 0x40 MLOAD DUP1 SWAP2 SUB SWAP1 REVERT JUMPDEST PUSH0 DUP3 MLOAD GT PUSH2 0x1E7 JUMPI PUSH1 0x40 MLOAD PUSH32 0x8C379A000000000000000000000000000000000000000000000000000000000 DUP2 MSTORE PUSH1 0x4 ADD PUSH2 0x1DE SWAP1 PUSH2 0xCC8 JUMP JUMPDEST PUSH1 0x40 MLOAD DUP1 SWAP2 SUB SWAP1 REVERT JUMPDEST PUSH0 DUP2 MLOAD GT PUSH2 0x22A JUMPI PUSH1 0x40 MLOAD PUSH32 0x8C379A000000000000000000000000000000000000000000000000000000000 DUP2 MSTORE PUSH1 0x4 ADD PUSH2 0x221 SWAP1 PUSH2 0xD30 JUMP JUMPDEST PUSH1 0x40 MLOAD DUP1 SWAP2 SUB SWAP1 REVERT JUMPDEST PUSH0 PUSH1 0x1 DUP5 PUSH1 0x40 MLOAD PUSH2 0x23B SWAP2 SWAP1 PUSH2 0xD88 JUMP JUMPDEST SWAP1 DUP2 MSTORE PUSH1 0x20 ADD PUSH1 0x40 MLOAD DUP1 SWAP2 SUB SWAP1 KECCAK256 PUSH1 0x3 ADD SLOAD EQ PUSH2 0x28D JUMPI PUSH1 0x40 MLOAD PUSH32 0x8C379A000000000000000000000000000000000000000000000000000000000 DUP2 MSTORE PUSH1 0x4 ADD PUSH2 0x284 SWAP1 PUSH2 0xDE8 JUMP JUMPDEST PUSH1 0x40 MLOAD DUP1 SWAP2 SUB SWAP1 REVERT JUMPDEST PUSH1 0x40 MLOAD DUP1 PUSH1 0xA0 ADD PUSH1 0x40 MSTORE DUP1 DUP5 DUP2 MSTORE PUSH1 0x20 ADD DUP4 DUP2 MSTORE PUSH1 0x20 ADD DUP3 DUP2 MSTORE PUSH1 0x20 ADD TIMESTAMP DUP2 MSTORE PUSH1 0x20 ADD PUSH1 0x1 ISZERO ISZERO DUP2 MSTORE POP PUSH1 0x1 DUP5 PUSH1 0x40 MLOAD PUSH2 0x2C7 SWAP2 SWAP1 PUSH2 0xD88 JUMP JUMPDEST SWAP1 DUP2 MSTORE PUSH1 0x20 ADD PUSH1 0x40 MLOAD DUP1 SWAP2 SUB SWAP1 KECCAK256 PUSH0 DUP3 ADD MLOAD DUP2 PUSH0 ADD SWAP1 DUP2 PUSH2 0x2E8 SWAP2 SWAP1 PUSH2 0x1000 JUMP JUMPDEST POP PUSH1 0x20 DUP3 ADD MLOAD DUP2 PUSH1 0x1 ADD SWAP1 DUP2 PUSH2 0x2FE SWAP2 SWAP1 PUSH2 0x1000 JUMP JUMPDEST POP PUSH1 0x40 DUP3 ADD MLOAD DUP2 PUSH1 0x2 ADD SWAP1 DUP2 PUSH2 0x314 SWAP2 SWAP1 PUSH2 0x1000 JUMP JUMPDEST POP PUSH1 0x60 DUP3 ADD MLOAD DUP2 PUSH1 0x3 ADD SSTORE PUSH1 0x80 DUP3 ADD MLOAD DUP2 PUSH1 0x4 ADD PUSH0 PUSH2 0x100 EXP DUP2 SLOAD DUP2 PUSH1 0xFF MUL NOT AND SWAP1 DUP4 ISZERO ISZERO MUL OR SWAP1 SSTORE POP SWAP1 POP POP PUSH32 0xC9F82037000F32D2B46FB276698EF599D04F4997A2E50EA7FF92EDF215C53BF4 DUP4 DUP4 PUSH1 0x40 MLOAD PUSH2 0x372 SWAP3 SWAP2 SWAP1 PUSH2 0x1107 JUMP JUMPDEST PUSH1 0x40 MLOAD DUP1 SWAP2 SUB SWAP1 LOG1 POP POP POP JUMP JUMPDEST PUSH2 0x387 PUSH2 0x792 JUMP JUMPDEST PUSH0 PUSH1 0x1 DUP4 PUSH1 0x40 MLOAD PUSH2 0x398 SWAP2 SWAP1 PUSH2 0xD88 JUMP JUMPDEST SWAP1 DUP2 MSTORE PUSH1 0x20 ADD PUSH1 0x40 MLOAD DUP1 SWAP2 SUB SWAP1 KECCAK256 PUSH1 0x40 MLOAD DUP1 PUSH1 0xA0 ADD PUSH1 0x40 MSTORE SWAP1 DUP2 PUSH0 DUP3 ADD DUP1 SLOAD PUSH2 0x3C0 SWAP1 PUSH2 0xE33 JUMP JUMPDEST DUP1 PUSH1 0x1F ADD PUSH1 0x20 DUP1 SWAP2 DIV MUL PUSH1 0x20 ADD PUSH1 0x40 MLOAD SWAP1 DUP2 ADD PUSH1 0x40 MSTORE DUP1 SWAP3 SWAP2 SWAP1 DUP2 DUP2 MSTORE PUSH1 0x20 ADD DUP3 DUP1 SLOAD PUSH2 0x3EC SWAP1 PUSH2 0xE33 JUMP JUMPDEST DUP1 ISZERO PUSH2 0x437 JUMPI DUP1 PUSH1 0x1F LT PUSH2 0x40E JUMPI PUSH2 0x100 DUP1 DUP4 SLOAD DIV MUL DUP4 MSTORE SWAP2 PUSH1 0x20 ADD SWAP2 PUSH2 0x437 JUMP JUMPDEST DUP3 ADD SWAP2 SWAP1 PUSH0 MSTORE PUSH1 0x20 PUSH0 KECCAK256 SWAP1 JUMPDEST DUP2 SLOAD DUP2 MSTORE SWAP1 PUSH1 0x1 ADD SWAP1 PUSH1 0x20 ADD DUP1 DUP4 GT PUSH2 0x41A JUMPI DUP3 SWAP1 SUB PUSH1 0x1F AND DUP3 ADD SWAP2 JUMPDEST POP POP POP POP POP DUP2 MSTORE PUSH1 0x20 ADD PUSH1 0x1 DUP3 ADD DUP1 SLOAD PUSH2 0x450 SWAP1 PUSH2 0xE33 JUMP JUMPDEST DUP1 PUSH1 0x1F ADD PUSH1 0x20 DUP1 SWAP2 DIV MUL PUSH1 0x20 ADD PUSH1 0x40 MLOAD SWAP1 DUP2 ADD PUSH1 0x40 MSTORE DUP1 SWAP3 SWAP2 SWAP1 DUP2 DUP2 MSTORE PUSH1 0x20 ADD DUP3 DUP1 SLOAD PUSH2 0x47C SWAP1 PUSH2 0xE33 JUMP JUMPDEST DUP1 ISZERO PUSH2 0x4C7 JUMPI DUP1 PUSH1 0x1F LT PUSH2 0x49E JUMPI PUSH2 0x100 DUP1 DUP4 SLOAD DIV MUL DUP4 MSTORE SWAP2 PUSH1 0x20 ADD SWAP2 PUSH2 0x4C7 JUMP JUMPDEST DUP3 ADD SWAP2 SWAP1 PUSH0 MSTORE PUSH1 0x20 PUSH0 KECCAK256 SWAP1 JUMPDEST DUP2 SLOAD DUP2 MSTORE SWAP1 PUSH1 0x1 ADD SWAP1 PUSH1 0x20 ADD DUP1 DUP4 GT PUSH2 0x4AA JUMPI DUP3 SWAP1 SUB PUSH1 0x1F AND DUP3 ADD SWAP2 JUMPDEST POP POP POP POP POP DUP2 MSTORE PUSH1 0x20 ADD PUSH1 0x2 DUP3 ADD DUP1 SLOAD PUSH2 0x4E0 SWAP1 PUSH2 0xE33 JUMP JUMPDEST DUP1 PUSH1 0x1F ADD PUSH1 0x20 DUP1 SWAP2 DIV MUL PUSH1 0x20 ADD PUSH1 0x40 MLOAD SWAP1 DUP2 ADD PUSH1 0x40 MSTORE DUP1 SWAP3 SWAP2 SWAP1 DUP2 DUP2 MSTORE PUSH1 0x20 ADD DUP3 DUP1 SLOAD PUSH2 0x50C SWAP1 PUSH2 0xE33 JUMP JUMPDEST DUP1 ISZERO PUSH2 0x557 JUMPI DUP1 PUSH1 0x1F LT PUSH2 0x52E JUMPI PUSH2 0x100 DUP1 DUP4 SLOAD DIV MUL DUP4 MSTORE SWAP2 PUSH1 0x20 ADD SWAP2 PUSH2 0x557 JUMP JUMPDEST DUP3 ADD SWAP2 SWAP1 PUSH0 MSTORE PUSH1 0x20 PUSH0 KECCAK256 SWAP1 JUMPDEST DUP2 SLOAD DUP2 MSTORE SWAP1 PUSH1 0x1 ADD SWAP1 PUSH1 0x20 ADD DUP1 DUP4 GT PUSH2 0x53A JUMPI DUP3 SWAP1 SUB PUSH1 0x1F AND DUP3 ADD SWAP2 JUMPDEST POP POP POP POP POP DUP2 MSTORE PUSH1 0x20 ADD PUSH1 0x3 DUP3 ADD SLOAD DUP2 MSTORE PUSH1 0x20 ADD PUSH1 0x4 DUP3 ADD PUSH0 SWAP1 SLOAD SWAP1 PUSH2 0x100 EXP SWAP1 DIV PUSH1 0xFF AND ISZERO ISZERO ISZERO ISZERO DUP2 MSTORE POP POP SWAP1 POP PUSH0 DUP2 PUSH1 0x60 ADD MLOAD SUB PUSH2 0x5CC JUMPI PUSH1 0x40 MLOAD PUSH32 0x8C379A000000000000000000000000000000000000000000000000000000000 DUP2 MSTORE PUSH1 0x4 ADD PUSH2 0x5C3 SWAP1 PUSH2 0x1186 JUMP JUMPDEST PUSH1 0x40 MLOAD DUP1 SWAP2 SUB SWAP1 REVERT JUMPDEST DUP1 SWAP2 POP POP SWAP2 SWAP1 POP JUMP JUMPDEST PUSH0 DUP1 SLOAD SWAP1 PUSH2 0x100 EXP SWAP1 DIV PUSH20 0xFFFFFFFFFFFFFFFFFFFFFFFFFFFFFFFFFFFFFFFF AND PUSH20 0xFFFFFFFFFFFFFFFFFFFFFFFFFFFFFFFFFFFFFFFF AND CALLER PUSH20 0xFFFFFFFFFFFFFFFFFFFFFFFFFFFFFFFFFFFFFFFF AND EQ PUSH2 0x662 JUMPI PUSH1 0x40 MLOAD PUSH32 0x8C379A000000000000000000000000000000000000000000000000000000000 DUP2 MSTORE PUSH1 0x4 ADD PUSH2 0x659 SWAP1 PUSH2 0xBF8 JUMP JUMPDEST PUSH1 0x40 MLOAD DUP1 SWAP2 SUB SWAP1 REVERT JUMPDEST PUSH0 PUSH1 0x1 DUP3 PUSH1 0x40 MLOAD PUSH2 0x673 SWAP2 SWAP1 PUSH2 0xD88 JUMP JUMPDEST SWAP1 DUP2 MSTORE PUSH1 0x20 ADD PUSH1 0x40 MLOAD DUP1 SWAP2 SUB SWAP1 KECCAK256 SWAP1 POP PUSH0 DUP2 PUSH1 0x3 ADD SLOAD SUB PUSH2 0x6C9 JUMPI PUSH1 0x40 MLOAD PUSH32 0x8C379A000000000000000000000000000000000000000000000000000000000 DUP2 MSTORE PUSH1 0x4 ADD PUSH2 0x6C0 SWAP1 PUSH2 0x1186 JUMP JUMPDEST PUSH1 0x40 MLOAD DUP1 SWAP2 SUB SWAP1 REVERT JUMPDEST DUP1 PUSH1 0x4 ADD PUSH0 SWAP1 SLOAD SWAP1 PUSH2 0x100 EXP SWAP1 DIV PUSH1 0xFF AND PUSH2 0x719 JUMPI PUSH1 0x40 MLOAD PUSH32 0x8C379A000000000000000000000000000000000000000000000000000000000 DUP2 MSTORE PUSH1 0x4 ADD PUSH2 0x710 SWAP1 PUSH2 0x11EE JUMP JUMPDEST PUSH1 0x40 MLOAD DUP1 SWAP2 SUB SWAP1 REVERT JUMPDEST PUSH0 DUP2 PUSH1 0x4 ADD PUSH0 PUSH2 0x100 EXP DUP2 SLOAD DUP2 PUSH1 0xFF MUL NOT AND SWAP1 DUP4 ISZERO ISZERO MUL OR SWAP1 SSTORE POP PUSH32 0xD8E1945EE48EA02E1B48E2F5C405D9B00D13EC0E54D19DA9874D0937B4489520 DUP3 PUSH1 0x40 MLOAD PUSH2 0x763 SWAP2 SWAP1 PUSH2 0x120C JUMP JUMPDEST PUSH1 0x40 MLOAD DUP1 SWAP2 SUB SWAP1 LOG1 POP POP JUMP JUMPDEST PUSH0 DUP1 SLOAD SWAP1 PUSH2 0x100 EXP SWAP1 DIV PUSH20 0xFFFFFFFFFFFFFFFFFFFFFFFFFFFFFFFFFFFFFFFF AND DUP2 JUMP JUMPDEST PUSH1 0x40 MLOAD DUP1 PUSH1 0xA0 ADD PUSH1 0x40 MSTORE DUP1 PUSH1 0x60 DUP2 MSTORE PUSH1 0x20 ADD PUSH1 0x60 DUP2 MSTORE PUSH1 0x20 ADD PUSH1 0x60 DUP2 MSTORE PUSH1 0x20 ADD PUSH0 DUP2 MSTORE PUSH1 0x20 ADD PUSH0 ISZERO ISZERO DUP2 MSTORE POP SWAP1 JUMP JUMPDEST PUSH0 PUSH1 0x40 MLOAD SWAP1 POP SWAP1 JUMP JUMPDEST PUSH0 DUP1 REVERT JUMPDEST PUSH0 DUP1 REVERT JUMPDEST PUSH0 DUP1 REVERT JUMPDEST PUSH0 DUP1 REVERT JUMPDEST PUSH0 PUSH1 0x1F NOT PUSH1 0x1F DUP4 ADD AND SWAP1 POP SWAP2 SWAP1 POP JUMP JUMPDEST PUSH32 0x4E487B7100000000000000000000000000000000000000000000000000000000 PUSH0 MSTORE PUSH1 0x41 PUSH1 0x4 MSTORE PUSH1 0x24 PUSH0 REVERT JUMPDEST PUSH2 0x820 DUP3 PUSH2 0x7DA JUMP JUMPDEST DUP2 ADD DUP2 DUP2 LT PUSH8 0xFFFFFFFFFFFFFFFF DUP3 GT OR ISZERO PUSH2 0x83F JUMPI PUSH2 0x83E PUSH2 0x7EA JUMP JUMPDEST JUMPDEST DUP1 PUSH1 0x40 MSTORE POP POP POP JUMP JUMPDEST PUSH0 PUSH2 0x851 PUSH2 0x7C1 JUMP JUMPDEST SWAP1 POP PUSH2 0x85D DUP3 DUP3 PUSH2 0x817 JUMP JUMPDEST SWAP2 SWAP1 POP JUMP JUMPDEST PUSH0 PUSH8 0xFFFFFFFFFFFFFFFF DUP3 GT ISZERO PUSH2 0x87C JUMPI PUSH2 0x87B PUSH2 0x7EA JUMP JUMPDEST JUMPDEST PUSH2 0x885 DUP3 PUSH2 0x7DA JUMP JUMPDEST SWAP1 POP PUSH1 0x20 DUP2 ADD SWAP1 POP SWAP2 SWAP1 POP JUMP JUMPDEST DUP3 DUP2 DUP4 CALLDATACOPY PUSH0 DUP4 DUP4 ADD MSTORE POP POP POP JUMP JUMPDEST PUSH0 PUSH2 0x8B2 PUSH2 0x8AD DUP5 PUSH2 0x862 JUMP JUMPDEST PUSH2 0x848 JUMP JUMPDEST SWAP1 POP DUP3 DUP2 MSTORE PUSH1 0x20 DUP2 ADD DUP5 DUP5 DUP5 ADD GT ISZERO PUSH2 0x8CE JUMPI PUSH2 0x8CD PUSH2 0x7D6 JUMP JUMPDEST JUMPDEST PUSH2 0x8D9 DUP5 DUP3 DUP6 PUSH2 0x892 JUMP JUMPDEST POP SWAP4 SWAP3 POP POP POP JUMP JUMPDEST PUSH0 DUP3 PUSH1 0x1F DUP4 ADD SLT PUSH2 0x8F5 JUMPI PUSH2 0x8F4 PUSH2 0x7D2 JUMP JUMPDEST JUMPDEST DUP2 CALLDATALOAD PUSH2 0x905 DUP5 DUP3 PUSH1 0x20 DUP7 ADD PUSH2 0x8A0 JUMP JUMPDEST SWAP2 POP POP SWAP3 SWAP2 POP POP JUMP JUMPDEST PUSH0 DUP1 PUSH0 PUSH1 0x60 DUP5 DUP7 SUB SLT ISZERO PUSH2 0x925 JUMPI PUSH2 0x924 PUSH2 0x7CA JUMP JUMPDEST JUMPDEST PUSH0 DUP5 ADD CALLDATALOAD PUSH8 0xFFFFFFFFFFFFFFFF DUP2 GT ISZERO PUSH2 0x942 JUMPI PUSH2 0x941 PUSH2 0x7CE JUMP JUMPDEST JUMPDEST PUSH2 0x94E DUP7 DUP3 DUP8 ADD PUSH2 0x8E1 JUMP JUMPDEST SWAP4 POP POP PUSH1 0x20 DUP5 ADD CALLDATALOAD PUSH8 0xFFFFFFFFFFFFFFFF DUP2 GT ISZERO PUSH2 0x96F JUMPI PUSH2 0x96E PUSH2 0x7CE JUMP JUMPDEST JUMPDEST PUSH2 0x97B DUP7 DUP3 DUP8 ADD PUSH2 0x8E1 JUMP JUMPDEST SWAP3 POP POP PUSH1 0x40 DUP5 ADD CALLDATALOAD PUSH8 0xFFFFFFFFFFFFFFFF DUP2 GT ISZERO PUSH2 0x99C JUMPI PUSH2 0x99B PUSH2 0x7CE JUMP JUMPDEST JUMPDEST PUSH2 0x9A8 DUP7 DUP3 DUP8 ADD PUSH2 0x8E1 JUMP JUMPDEST SWAP2 POP POP SWAP3 POP SWAP3 POP SWAP3 JUMP JUMPDEST PUSH0 PUSH1 0x20 DUP3 DUP5 SUB SLT ISZERO PUSH2 0x9C7 JUMPI PUSH2 0x9C6 PUSH2 0x7CA JUMP JUMPDEST JUMPDEST PUSH0 DUP3 ADD CALLDATALOAD PUSH8 0xFFFFFFFFFFFFFFFF DUP2 GT ISZERO PUSH2 0x9E4 JUMPI PUSH2 0x9E3 PUSH2 0x7CE JUMP JUMPDEST JUMPDEST PUSH2 0x9F0 DUP5 DUP3 DUP6 ADD PUSH2 0x8E1 JUMP JUMPDEST SWAP2 POP POP SWAP3 SWAP2 POP POP JUMP JUMPDEST PUSH0 DUP2 MLOAD SWAP1 POP SWAP2 SWAP1 POP JUMP JUMPDEST PUSH0 DUP3 DUP3 MSTORE PUSH1 0x20 DUP3 ADD SWAP1 POP SWAP3 SWAP2 POP POP JUMP JUMPDEST PUSH0 JUMPDEST DUP4 DUP2 LT ISZERO PUSH2 0xA30 JUMPI DUP1 DUP3 ADD MLOAD DUP2 DUP5 ADD MSTORE PUSH1 0x20 DUP2 ADD SWAP1 POP PUSH2 0xA15 JUMP JUMPDEST PUSH0 DUP5 DUP5 ADD MSTORE POP POP POP POP JUMP JUMPDEST PUSH0 PUSH2 0xA45 DUP3 PUSH2 0x9F9 JUMP JUMPDEST PUSH2 0xA4F DUP2 DUP6 PUSH2 0xA03 JUMP JUMPDEST SWAP4 POP PUSH2 0xA5F DUP2 DUP6 PUSH1 0x20 DUP7 ADD PUSH2 0xA13 JUMP JUMPDEST PUSH2 0xA68 DUP2 PUSH2 0x7DA JUMP JUMPDEST DUP5 ADD SWAP2 POP POP SWAP3 SWAP2 POP POP JUMP JUMPDEST PUSH0 DUP2 SWAP1 POP SWAP2 SWAP1 POP JUMP JUMPDEST PUSH2 0xA85 DUP2 PUSH2 0xA73 JUMP JUMPDEST DUP3 MSTORE POP POP JUMP JUMPDEST PUSH0 DUP2 ISZERO ISZERO SWAP1 POP SWAP2 SWAP1 POP JUMP JUMPDEST PUSH2 0xA9F DUP2 PUSH2 0xA8B JUMP JUMPDEST DUP3 MSTORE POP POP JUMP JUMPDEST PUSH0 PUSH1 0xA0 DUP4 ADD PUSH0 DUP4 ADD MLOAD DUP5 DUP3 SUB PUSH0 DUP7 ADD MSTORE PUSH2 0xABF DUP3 DUP3 PUSH2 0xA3B JUMP JUMPDEST SWAP2 POP POP PUSH1 0x20 DUP4 ADD MLOAD DUP5 DUP3 SUB PUSH1 0x20 DUP7 ADD MSTORE PUSH2 0xAD9 DUP3 DUP3 PUSH2 0xA3B JUMP JUMPDEST SWAP2 POP POP PUSH1 0x40 DUP4 ADD MLOAD DUP5 DUP3 SUB PUSH1 0x40 DUP7 ADD MSTORE PUSH2 0xAF3 DUP3 DUP3 PUSH2 0xA3B JUMP JUMPDEST SWAP2 POP POP PUSH1 0x60 DUP4 ADD MLOAD PUSH2 0xB08 PUSH1 0x60 DUP7 ADD DUP3 PUSH2 0xA7C JUMP JUMPDEST POP PUSH1 0x80 DUP4 ADD MLOAD PUSH2 0xB1B PUSH1 0x80 DUP7 ADD DUP3 PUSH2 0xA96 JUMP JUMPDEST POP DUP1 SWAP2 POP POP SWAP3 SWAP2 POP POP JUMP JUMPDEST PUSH0 PUSH1 0x20 DUP3 ADD SWAP1 POP DUP2 DUP2 SUB PUSH0 DUP4 ADD MSTORE PUSH2 0xB3E DUP2 DUP5 PUSH2 0xAA5 JUMP JUMPDEST SWAP1 POP SWAP3 SWAP2 POP POP JUMP JUMPDEST PUSH0 PUSH20 0xFFFFFFFFFFFFFFFFFFFFFFFFFFFFFFFFFFFFFFFF DUP3 AND SWAP1 POP SWAP2 SWAP1 POP JUMP JUMPDEST PUSH0 PUSH2 0xB6F DUP3 PUSH2 0xB46 JUMP JUMPDEST SWAP1 POP SWAP2 SWAP1 POP JUMP JUMPDEST PUSH2 0xB7F DUP2 PUSH2 0xB65 JUMP JUMPDEST DUP3 MSTORE POP POP JUMP JUMPDEST PUSH0 PUSH1 0x20 DUP3 ADD SWAP1 POP PUSH2 0xB98 PUSH0 DUP4 ADD DUP5 PUSH2 0xB76 JUMP JUMPDEST SWAP3 SWAP2 POP POP JUMP JUMPDEST PUSH0 DUP3 DUP3 MSTORE PUSH1 0x20 DUP3 ADD SWAP1 POP SWAP3 SWAP2 POP POP JUMP JUMPDEST PUSH32 0x4E6F7420617574686F72697A6564000000000000000000000000000000000000 PUSH0 DUP3 ADD MSTORE POP JUMP JUMPDEST PUSH0 PUSH2 0xBE2 PUSH1 0xE DUP4 PUSH2 0xB9E JUMP JUMPDEST SWAP2 POP PUSH2 0xBED DUP3 PUSH2 0xBAE JUMP JUMPDEST PUSH1 0x20 DUP3 ADD SWAP1 POP SWAP2 SWAP1 POP JUMP JUMPDEST PUSH0 PUSH1 0x20 DUP3 ADD SWAP1 POP DUP2 DUP2 SUB PUSH0 DUP4 ADD MSTORE PUSH2 0xC0F DUP2 PUSH2 0xBD6 JUMP JUMPDEST SWAP1 POP SWAP2 SWAP1 POP JUMP JUMPDEST PUSH32 0x73747564656E7449642072657175697265640000000000000000000000000000 PUSH0 DUP3 ADD MSTORE POP JUMP JUMPDEST PUSH0 PUSH2 0xC4A PUSH1 0x12 DUP4 PUSH2 0xB9E JUMP JUMPDEST SWAP2 POP PUSH2 0xC55 DUP3 PUSH2 0xC16 JUMP JUMPDEST PUSH1 0x20 DUP3 ADD SWAP1 POP SWAP2 SWAP1 POP JUMP JUMPDEST PUSH0 PUSH1 0x20 DUP3 ADD SWAP1 POP DUP2 DUP2 SUB PUSH0 DUP4 ADD MSTORE PUSH2 0xC77 DUP2 PUSH2 0xC3E JUMP JUMPDEST SWAP1 POP SWAP2 SWAP1 POP JUMP JUMPDEST PUSH32 0x646F63756D656E74486173682072657175697265640000000000000000000000 PUSH0 DUP3 ADD MSTORE POP JUMP JUMPDEST PUSH0 PUSH2 0xCB2 PUSH1 0x15 DUP4 PUSH2 0xB9E JUMP JUMPDEST SWAP2 POP PUSH2 0xCBD DUP3 PUSH2 0xC7E JUMP JUMPDEST PUSH1 0x20 DUP3 ADD SWAP1 POP SWAP2 SWAP1 POP JUMP JUMPDEST PUSH0 PUSH1 0x20 DUP3 ADD SWAP1 POP DUP2 DUP2 SUB PUSH0 DUP4 ADD MSTORE PUSH2 0xCDF DUP2 PUSH2 0xCA6 JUMP JUMPDEST SWAP1 POP SWAP2 SWAP1 POP JUMP JUMPDEST PUSH32 0x6973737565722072657175697265640000000000000000000000000000000000 PUSH0 DUP3 ADD MSTORE POP JUMP JUMPDEST PUSH0 PUSH2 0xD1A PUSH1 0xF DUP4 PUSH2 0xB9E JUMP JUMPDEST SWAP2 POP PUSH2 0xD25 DUP3 PUSH2 0xCE6 JUMP JUMPDEST PUSH1 0x20 DUP3 ADD SWAP1 POP SWAP2 SWAP1 POP JUMP JUMPDEST PUSH0 PUSH1 0x20 DUP3 ADD SWAP1 POP DUP2 DUP2 SUB PUSH0 DUP4 ADD MSTORE PUSH2 0xD47 DUP2 PUSH2 0xD0E JUMP JUMPDEST SWAP1 POP SWAP2 SWAP1 POP JUMP JUMPDEST PUSH0 DUP2 SWAP1 POP SWAP3 SWAP2 POP POP JUMP JUMPDEST PUSH0 PUSH2 0xD62 DUP3 PUSH2 0x9F9 JUMP JUMPDEST PUSH2 0xD6C DUP2 DUP6 PUSH2 0xD4E JUMP JUMPDEST SWAP4 POP PUSH2 0xD7C DUP2 DUP6 PUSH1 0x20 DUP7 ADD PUSH2 0xA13 JUMP JUMPDEST DUP1 DUP5 ADD SWAP2 POP POP SWAP3 SWAP2 POP POP JUMP JUMPDEST PUSH0 PUSH2 0xD93 DUP3 DUP5 PUSH2 0xD58 JUMP JUMPDEST SWAP2 POP DUP2 SWAP1 POP SWAP3 SWAP2 POP POP JUMP JUMPDEST PUSH32 0x5265636F726420616C7265616479206578697374730000000000000000000000 PUSH0 DUP3 ADD MSTORE POP JUMP JUMPDEST PUSH0 PUSH2 0xDD2 PUSH1 0x15 DUP4 PUSH2 0xB9E JUMP JUMPDEST SWAP2 POP PUSH2 0xDDD DUP3 PUSH2 0xD9E JUMP JUMPDEST PUSH1 0x20 DUP3 ADD SWAP1 POP SWAP2 SWAP1 POP JUMP JUMPDEST PUSH0 PUSH1 0x20 DUP3 ADD SWAP1 POP DUP2 DUP2 SUB PUSH0 DUP4 ADD MSTORE PUSH2 0xDFF DUP2 PUSH2 0xDC6 JUMP JUMPDEST SWAP1 POP SWAP2 SWAP1 POP JUMP JUMPDEST PUSH32 0x4E487B7100000000000000000000000000000000000000000000000000000000 PUSH0 MSTORE PUSH1 0x22 PUSH1 0x4 MSTORE PUSH1 0x24 PUSH0 REVERT JUMPDEST PUSH0 PUSH1 0x2 DUP3 DIV SWAP1 POP PUSH1 0x1 DUP3 AND DUP1 PUSH2 0xE4A JUMPI PUSH1 0x7F DUP3 AND SWAP2 POP JUMPDEST PUSH1 0x20 DUP3 LT DUP2 SUB PUSH2 0xE5D JUMPI PUSH2 0xE5C PUSH2 0xE06 JUMP JUMPDEST JUMPDEST POP SWAP2 SWAP1 POP JUMP JUMPDEST PUSH0 DUP2 SWAP1 POP DUP2 PUSH0 MSTORE PUSH1 0x20 PUSH0 KECCAK256 SWAP1 POP SWAP2 SWAP1 POP JUMP JUMPDEST PUSH0 PUSH1 0x20 PUSH1 0x1F DUP4 ADD DIV SWAP1 POP SWAP2 SWAP1 POP JUMP JUMPDEST PUSH0 DUP3 DUP3 SHL SWAP1 POP SWAP3 SWAP2 POP POP JUMP JUMPDEST PUSH0 PUSH1 0x8 DUP4 MUL PUSH2 0xEBF PUSH32 0xFFFFFFFFFFFFFFFFFFFFFFFFFFFFFFFFFFFFFFFFFFFFFFFFFFFFFFFFFFFFFFFF DUP3 PUSH2 0xE84 JUMP JUMPDEST PUSH2 0xEC9 DUP7 DUP4 PUSH2 0xE84 JUMP JUMPDEST SWAP6 POP DUP1 NOT DUP5 AND SWAP4 POP DUP1 DUP7 AND DUP5 OR SWAP3 POP POP POP SWAP4 SWAP3 POP POP POP JUMP JUMPDEST PUSH0 DUP2 SWAP1 POP SWAP2 SWAP1 POP JUMP JUMPDEST PUSH0 PUSH2 0xF04 PUSH2 0xEFF PUSH2 0xEFA DUP5 PUSH2 0xA73 JUMP JUMPDEST PUSH2 0xEE1 JUMP JUMPDEST PUSH2 0xA73 JUMP JUMPDEST SWAP1 POP SWAP2 SWAP1 POP JUMP JUMPDEST PUSH0 DUP2 SWAP1 POP SWAP2 SWAP1 POP JUMP JUMPDEST PUSH2 0xF1D DUP4 PUSH2 0xEEA JUMP JUMPDEST PUSH2 0xF31 PUSH2 0xF29 DUP3 PUSH2 0xF0B JUMP JUMPDEST DUP5 DUP5 SLOAD PUSH2 0xE90 JUMP JUMPDEST DUP3 SSTORE POP POP POP POP JUMP JUMPDEST PUSH0 SWAP1 JUMP JUMPDEST PUSH2 0xF45 PUSH2 0xF39 JUMP JUMPDEST PUSH2 0xF50 DUP2 DUP5 DUP5 PUSH2 0xF14 JUMP JUMPDEST POP POP POP JUMP JUMPDEST JUMPDEST DUP2 DUP2 LT ISZERO PUSH2 0xF73 JUMPI PUSH2 0xF68 PUSH0 DUP3 PUSH2 0xF3D JUMP JUMPDEST PUSH1 0x1 DUP2 ADD SWAP1 POP PUSH2 0xF56 JUMP JUMPDEST POP POP JUMP JUMPDEST PUSH1 0x1F DUP3 GT ISZERO PUSH2 0xFB8 JUMPI PUSH2 0xF89 DUP2 PUSH2 0xE63 JUMP JUMPDEST PUSH2 0xF92 DUP5 PUSH2 0xE75 JUMP JUMPDEST DUP2 ADD PUSH1 0x20 DUP6 LT ISZERO PUSH2 0xFA1 JUMPI DUP2 SWAP1 POP JUMPDEST PUSH2 0xFB5 PUSH2 0xFAD DUP6 PUSH2 0xE75 JUMP JUMPDEST DUP4 ADD DUP3 PUSH2 0xF55 JUMP JUMPDEST POP POP JUMPDEST POP POP POP JUMP JUMPDEST PUSH0 DUP3 DUP3 SHR SWAP1 POP SWAP3 SWAP2 POP POP JUMP JUMPDEST PUSH0 PUSH2 0xFD8 PUSH0 NOT DUP5 PUSH1 0x8 MUL PUSH2 0xFBD JUMP JUMPDEST NOT DUP1 DUP4 AND SWAP2 POP POP SWAP3 SWAP2 POP POP JUMP JUMPDEST PUSH0 PUSH2 0xFF0 DUP4 DUP4 PUSH2 0xFC9 JUMP JUMPDEST SWAP2 POP DUP3 PUSH1 0x2 MUL DUP3 OR SWAP1 POP SWAP3 SWAP2 POP POP JUMP JUMPDEST PUSH2 0x1009 DUP3 PUSH2 0x9F9 JUMP JUMPDEST PUSH8 0xFFFFFFFFFFFFFFFF DUP2 GT ISZERO PUSH2 0x1022 JUMPI PUSH2 0x1021 PUSH2 0x7EA JUMP JUMPDEST JUMPDEST PUSH2 0x102C DUP3 SLOAD PUSH2 0xE33 JUMP JUMPDEST PUSH2 0x1037 DUP3 DUP3 DUP6 PUSH2 0xF77 JUMP JUMPDEST PUSH0 PUSH1 0x20 SWAP1 POP PUSH1 0x1F DUP4 GT PUSH1 0x1 DUP2 EQ PUSH2 0x1068 JUMPI PUSH0 DUP5 ISZERO PUSH2 0x1056 JUMPI DUP3 DUP8 ADD MLOAD SWAP1 POP JUMPDEST PUSH2 0x1060 DUP6 DUP3 PUSH2 0xFE5 JUMP JUMPDEST DUP7 SSTORE POP PUSH2 0x10C7 JUMP JUMPDEST PUSH1 0x1F NOT DUP5 AND PUSH2 0x1076 DUP7 PUSH2 0xE63 JUMP JUMPDEST PUSH0 JUMPDEST DUP3 DUP2 LT ISZERO PUSH2 0x109D JUMPI DUP5 DUP10 ADD MLOAD DUP3 SSTORE PUSH1 0x1 DUP3 ADD SWAP2 POP PUSH1 0x20 DUP6 ADD SWAP5 POP PUSH1 0x20 DUP2 ADD SWAP1 POP PUSH2 0x1078 JUMP JUMPDEST DUP7 DUP4 LT ISZERO PUSH2 0x10BA JUMPI DUP5 DUP10 ADD MLOAD PUSH2 0x10B6 PUSH1 0x1F DUP10 AND DUP3 PUSH2 0xFC9 JUMP JUMPDEST DUP4 SSTORE POP JUMPDEST PUSH1 0x1 PUSH1 0x2 DUP9 MUL ADD DUP9 SSTORE POP POP POP JUMPDEST POP POP POP POP POP POP JUMP JUMPDEST PUSH0 PUSH2 0x10D9 DUP3 PUSH2 0x9F9 JUMP JUMPDEST PUSH2 0x10E3 DUP2 DUP6 PUSH2 0xB9E JUMP JUMPDEST SWAP4 POP PUSH2 0x10F3 DUP2 DUP6 PUSH1 0x20 DUP7 ADD PUSH2 0xA13 JUMP JUMPDEST PUSH2 0x10FC DUP2 PUSH2 0x7DA JUMP JUMPDEST DUP5 ADD SWAP2 POP POP SWAP3 SWAP2 POP POP JUMP JUMPDEST PUSH0 PUSH1 0x40 DUP3 ADD SWAP1 POP DUP2 DUP2 SUB PUSH0 DUP4 ADD MSTORE PUSH2 0x111F DUP2 DUP6 PUSH2 0x10CF JUMP JUMPDEST SWAP1 POP DUP2 DUP2 SUB PUSH1 0x20 DUP4 ADD MSTORE PUSH2 0x1133 DUP2 DUP5 PUSH2 0x10CF JUMP JUMPDEST SWAP1 POP SWAP4 SWAP3 POP POP POP JUMP JUMPDEST PUSH32 0x5265636F7264206E6F7420666F756E6400000000000000000000000000000000 PUSH0 DUP3 ADD MSTORE POP JUMP JUMPDEST PUSH0 PUSH2 0x1170 PUSH1 0x10 DUP4 PUSH2 0xB9E JUMP JUMPDEST SWAP2 POP PUSH2 0x117B DUP3 PUSH2 0x113C JUMP JUMPDEST PUSH1 0x20 DUP3 ADD SWAP1 POP SWAP2 SWAP1 POP JUMP JUMPDEST PUSH0 PUSH1 0x20 DUP3 ADD SWAP1 POP DUP2 DUP2 SUB PUSH0 DUP4 ADD MSTORE PUSH2 0x119D DUP2 PUSH2 0x1164 JUMP JUMPDEST SWAP1 POP SWAP2 SWAP1 POP JUMP JUMPDEST PUSH32 0x5265636F726420616C7265616479207265766F6B656400000000000000000000 PUSH0 DUP3 ADD MSTORE POP JUMP JUMPDEST PUSH0 PUSH2 0x11D8 PUSH1 0x16 DUP4 PUSH2 0xB9E JUMP JUMPDEST SWAP2 POP PUSH2 0x11E3 DUP3 PUSH2 0x11A4 JUMP JUMPDEST PUSH1 0x20 DUP3 ADD SWAP1 POP SWAP2 SWAP1 POP JUMP JUMPDEST PUSH0 PUSH1 0x20 DUP3 ADD SWAP1 POP DUP2 DUP2 SUB PUSH0 DUP4 ADD MSTORE PUSH2 0x1205 DUP2 PUSH2 0x11CC JUMP JUMPDEST SWAP1 POP SWAP2 SWAP1 POP JUMP JUMPDEST PUSH0 PUSH1 0x20 DUP3 ADD SWAP1 POP DUP2 DUP2 SUB PUSH0 DUP4 ADD MSTORE PUSH2 0x1224 DUP2 DUP5 PUSH2 0x10CF JUMP JUMPDEST SWAP1 POP SWAP3 SWAP2 POP POP JUMP INVALID LOG2 PUSH5 0x6970667358 0x22 SLT KECCAK256 0x5E REVERT CREATE2 0xA7 DUP6 EXP 0xF7 0xBE 0xB2 0x5D 0xB4 SWAP6 DUP3 PUSH10 0x296D4CC5675E403FE430 CALLDATASIZE AND 0xC4 0xCC SWAP11 0x4B 0xC4 0xCB PUSH5 0x736F6C6343 STOP ADDMOD EQ STOP CALLER "},"methodIdentifiers":{"admin()":"f851a440","issueRecord(string,string,string)":"6ae6a1be","revokeRecord(string)":"c8468316","verifyRecord(string)":"c40e5824"}}}}}